:100000001EC023C022C021C090C01FC01EC01DC082
:100010001CC01BC01AC019C018C017C016C015C01C
:1000200014C013C012C011C010C025C02CC033C0F2
:100030003AC041C048C04FC056C05DC064C0112422
:100040001FBECFEDCDBF8BD0A4C0DACF939808955B
:10005000BC9ABA9AB99A8E9ABE9ABD9ABF9A8D9A4C
:100060008B9AF4DF08958A30910508F054C0FC01A2
:10007000EB5EFF4F0994C29AC19A969AC69AC59AA6
:10008000C79A95980895C298C19A969AC698C598A5
:10009000C79895980895C29AC19A9698C69AC59A93
:1000A000C798959A0895C29AC19A969AC69AC59881
:1000B000C798959A0895C298C19A969AC698C59875
:1000C000C79A959A0895C29AC198969AC698C59863
:1000D000C79A959A0895C29AC198969AC69AC59A4F
:1000E000C79A959A0895C29AC19A969AC698C59841
:1000F000C79895980895C29AC19A969AC69AC59A31
:10010000C79A959A0895C29AC19A969AC69AC5981E
:10011000C79A959A0895C298C1989698C698C59816
:10012000C79895980895C49808951F920F920FB696
:100130000F9211242F933F938F939F932AB53BB532
:1001400084EC99E0821B930B9BBD8ABD9F918F919C
:100150003F912F910F900FBE0F901F901895CF9346
:10016000DF931F92CDB7DD278C9A949A71DFDBDF86
:100170006DDF8FEF9FEF77DF1982B89880E48FBD36
:100180009AE09EBD89BF88E099E09BBD8ABD7894C6
:06019000FFCFF894FFCF41
:00000001FF
